:020000040800F2
:10000000E8080020750200085D350008712C000822
:1000100059350008450C000845390008000000006B
:10002000000000000000000000000000453600084D
:10003000490C00080000000041360008493600085D
:100040008F0200088F0200088F0200088F0200084C
:100050008F0200088F0200088F0200088F0200083C
:100060008F0200088F0200088F0200088F0200082C
:100070008F0200088F0200088F0200088F0200081C
:100080008F0200088F0200088F0200088F0200080C
:100090008F0200088F0200088F0200088F020008FC
:1000A0008F0200088F0200088F0200088F020008EC
:1000B000093700088F0200088F0200088F0200082D
:1000C0008F0200088F0200088F0200088F020008CC
:1000D0008F0200088F0200088F0200088F020008BC
:1000E0004D0C00088F0200088F0200088F020008E4
:1000F0008F0200088F0200088F0200088F0200089C
:100100008F0200088F020008153700088F020008D0
:100110008F0200088F0200088F0200088F0200087B
:100120008F0200088F0200088F0200088F0200086B
:100130008F0200088F0200088F0200088F0200085B
:100140008F0200088F0200088F0200088F0200084B
:100150008F0200088F0200088F0200088F0200083B
:100160008F0200088F0200088F0200088F0200082B
:100170008F0200088F0200088F02000800000000B4
:100180008F0200088F02000800F002F800F062F809
:1001900014A696E8000CB244B344DA4501D100F04D
:1001A00059F8BAE80F000FA696E83000A5EB040551
:1001B00004EB0607AAEB0704A7F101074FEA1515A0
:1001C0004FEA3414A4F10104AC4201D300F042F828
:1001D00013F0010F18BFFB1A43F0010300F001F800
:1001E000DBE71847CC4D0000EC4D0000103A24BF6F
:1001F00078C878C1FAD8520724BF30C830C144BF8C
:1002000004680C6070470000704700000023002461
:1002100000250026103A28BF78C1FBD8520728BF16
:1002200030C148BF0B607047662904F040866429DE
:1002300000F0B880002070471FB504F02BFE00F0DE
:1002400089FB04000020002104F00EFEE0601FBDC9
:1002500010B510BD00F082FC1146FFF7EDFF03F072
:100260008DFB00F0A0FC03B4FFF7F2FF03BC00F02D
:10027000E1FC00000948804709480047FEE7FEE727
:10028000FEE7FEE7FEE7FEE7FEE7FEE7FEE7FEE746
:1002900004480549054A064B70470000F53600083A
:1002A00089010008E8020020E8080020E804002096
:1002B000E804002053EA020C00F069802DE9F04BBD
:1002C0004FF00006002B1FBFB3FA83F503FA05F4C5
:1002D00024FA05F65E4012BF1643B2FA82F502FA1E
:1002E00005F4C5F120051EBF22FA05FC44EA0C0402
:1002F000203556EA044C4FEA144418BF641C4FF0F2
:1003000000084FF00009904271EB030C39D300292B
:1003100019BFB1FA81F701FA07F6B0FA80F700FACF
:1003200007F6C7F120071EBF20FA07FC46EA0C06B5
:100330002037B6FBF4FCA7EB0507103F07F01F0BB7
:10034000CBF120062CFA06F60CFA0BFB44BFB346A1
:100350000026202FA4BF5E464FF0000B5BEA060C80
:1003600008BF4FF0010B19EB0B0948EB0608ABFB7C
:10037000027C06FB02CC0BFB03CCC01B71EB0C0117
:10038000C1E70B46024641464846BDE8F08B13B52F
:10039000084318BF4FF0FF300146AFF30080BDE8BF
:1003A0001C4070472DE9F04106460024106875296D
:1003B000314616A510D0AFF30080002802DA404283
:1003C00013A507E031688A0701D512A502E04907A5
:1003D00004D511A5012401E0AFF3008000210A2219
:1003E00006F1240709E0B0FBF2FCB0FBF2F302FBDC
:1003F0001C00303078541846491C0028F3D123469D
:100400002A463046BDE8F04100F03DB8000000004B
:100410002D0000002B000000200000004FF0000223
:1004200000B5134694469646203922BFA0E80C50EA
:10043000A0E80C50B1F12001BFF4F7AF090728BFC5
:10044000A0E80C5048BF0CC05DF804EB890028BF41
:1004500040F8042B08BF704748BF20F8022B11F06A
:10046000804F18BF00F8012B7047704770477047E6
:1004700010B500F073FA006810BD10B5044600F026
:100480006DFA046010BD2DE9F0470D46994692467D
:10049000044600F124080168880604D5E06921F0CB
:1004A0001001216000E00120A84201DD471B00E0AF
:1004B0000027A1697A1902EB0900081AA0612078C7
:1004C000C00602D42046AFF30080002608E0D4E93D
:1004D00001211AF806009047206A401C761C206211
:1004E0004E45F4DB2078C0060AD52046AFF30080E5
:1004F00006E0D4E9012130209047206A401C2062A8
:10050000381EA7F10107F4DC07E0D4E9012118F84F
:1005100005009047206A401C2062281EA5F10105B5
:10052000F3DC2046AFF300802078000602D50220DD
:10053000BDE8F0870120FBE72DE9FF4F0C461E4682
:100540004FF0FF378BB0D2E90001DDF860800A90F0
:100550008A46C1F30A5505B93D46002108464FF0C9
:100560000000BAF1000F00F4400005DA00EB800053
:100570004FF4400101EA50004FEA9059B9F1010FE0
:1005800000DDB9460A9850EA4A000ED044F61050F1
:10059000A5F2FF3545432F14B8F1000F1ED0754268
:1005A000291E1EDDC9F100021CE0B8F1010F4FF059
:1005B000000001D0302103E0F24305E02154401C4B
:1005C000B042FBDB30460022002121540B99C1F8D8
:1005D0000880C1E900200FB0BDE8F08FBD1B6D1C85
:1005E000DEE74A4600DA694206A800F041FA06ABA7
:1005F00093E8070003AB83E8070050460A9903F02D
:1006000011FE8DE80700A0F500501F3800900398F8
:10061000002D0ADD42F21F014A460844002303A9C7
:100620000390684604F07AF809E0A0F500504A46C5
:100630001F38002303A90390684604F084F88DE86E
:1006400007000004000C03D04FF0FF30410800E029
:100650001046B8F1000F03D00022009215461EE0AC
:10066000751E05D400F07EF9303262556D1EF9D545
:10067000B3460122084302D000227F1C04E0207808
:10068000302801D100227F1E002A099784D01DE066
:10069000112D07DA00F066F9303262556D1C50EA10
:1006A0000102F5D1084302D00098C8B10EE0002144
:1006B000681E05E0235C625C63542254401E491CA2
:1006C0008142F7DBAB46A81B401E0990002004F8CE
:1006D0000B000B98099AC0F80880C0E9002B7AE754
:1006E00011264FF0000857E72DE9F04F88460446E1
:1006F000D21D22F0070191B0D1E90001CDE90A0134
:1007000004F058F902460B98C00F01D02D2007E0E5
:100710002068810701D52B2002E0202101EAC000DA
:10072000032A099001D0072A05DB034641462046EB
:1007300000F05EF90BE12078800601D5E06900E069
:100740000620B8F1650F814606D0B8F1660F18D0C3
:10075000B8F1670F70D131E00020B9F1110F0090AE
:1007600001DB112301E009F101030AAA01A90CA888
:10077000FFF7E2FEDDE90C70002609F10105834672
:1007800047E001204B4600904FF000470AAA01A91C
:100790000CA8FFF7D1FEDDE90DB00C995D460026EF
:1007A00010B909F101000D18B9EB050003D4C0F12F
:1007B000FF3609F10105A5EB09002BE0B9F1010FA6
:1007C00001DA4FF001090020B9F1110F00904846FD
:1007D00001DD112300E003460AAA01A90CA8FFF7D6
:1007E000ABFEDDE90C704D460026834620780007FD
:1007F0000AD4AB4500DA5D4601A8012D04DD41199C
:1008000011F8011C302907D04F4502DA17F1040F07
:1008100004DA012082460FE06D1EEEE7002F02DCB5
:10082000ED1B3E4403E0781CA84200DD7D1CB81B94
:1008300000F1010A4FF000472078000703D4AA45D1
:1008400001DB4FF0FF3A0021B7F1004F0DF14308F3
:100850008DF8431024D002202B23002F01DA7F4291
:100860002D230A21021EA0F1010000DC5FB197FBDD
:10087000F1FC97FBF1F201FB1C7C17460CF1300CEC
:1008800008F801CDEEE7A8F1010003702188090501
:1008900001D5452100E06521A0F1010800F8011C07
:1008A00009980FA9A1EB0807FF1D00B1012041190C
:1008B00001EBEA70A1693844081A401EA061207853
:1008C000C00602D42046AFF30080099828B1D4E9CD
:1008D00001219047206A401C20622078C00622D562
:1008E0002046AFF300801EE0002E04DBB34502DD9E
:1008F00001A8805D00E03020D4E901219047206A02
:10090000401C2062761CAAF101005FEA000A0AD1AD
:1009100000F020F8C0680168405CD4E901219047EC
:10092000206A401C2062281EA5F10105DCDC07E0DE
:10093000D4E9012118F8010B9047206A401C20627D
:10094000381EA7F10107F3DC2046AFF30080032037
:1009500011B041E600487047300000200048704761
:100960001000002030B5B0F10A0271F100034FEA27
:10097000900E4EEA817EB0EB0E0061EB91014FEAE2
:10098000101E4EEA017E10EB0E0041EB11114FEAF2
:10099000102E4EEA016E10EB0E0041EB11214FEAD2
:1009A000104E4EEA014E10EB0E0041EB1141401883
:1009B00041F100014FEAD00040EA41704FEAD10115
:1009C0004FEA810444EA907410EB800544EB010483
:1009D0006D1944EB0404521BA3414FF0000348BFC0
:1009E0000A3200D530BD401C41F1000130BD00008D
:1009F0002DE9F0411F46044603260168072A01F449
:100A0000006004DB08B116A505E016A503E008B1F7
:100A100015A500E015A521F010002060A069C01EFA
:100A2000A0610FB1401EA0612046AFF300804FB11E
:100A3000D4E9012138469047206A401C2062C01C3E
:100A4000206206E0206AFAE7D4E9012115F8010BDB
:100A50009047761EF8D22046AFF30080BDE8F081C3
:100A60004E414E006E616E00494E4600696E660052
:100A70002DE9F047814616468AB0354878440DC8BE
:100A80008DE80D0032487844801C03AC0DC884E822
:100A90000D0041F69B300844372190FBF1F290FBAA
:100AA000F1F5A5F1800501FB12041B3C02D564425F
:100AB000012000E00020DFF898A080460027FA44DB
:100AC000AAF1BE0A0EE0E0070AD03246684607EBFC
:100AD000470101230AEB810103F035FE8DE8070091
:100AE00064107F1C002CEED1194F7F44AE3F19E0FB
:100AF000E80715D007EB04100DF1180A90E80E0076
:100B00008AE80E00C068F04201D198190890324678
:100B1000012306A903A803F016FE03AB83E8070030
:100B20006D10641C002DE3D14FF00103324669467D
:100B3000B8F1000F03A802D003F0F0FD01E003F0CC
:100B400002FEC9E90001C9F808200AB0BDE8F08733
:100B5000D044000000487047100000207546FFF7A1
:100B6000F9FFAE4605006946534620F0070085466A
:100B700018B020B5FFF78CFBBDE820404FF0000611
:100B80004FF000074FF000084FF0000BAC46ACE808
:100B9000C009ACE8C009ACE8C009ACE8C00921F064
:100BA00007018D46704710B50446AFF3008020461C
:100BB000BDE81040FFF757BB30B44FF0013C50F890
:100BC000042B51F8043BCCFA52F4D51A20D1FCB9CD
:100BD00050F8042B51F8043BCCFA52F4D51A17D133
:100BE000B4B950F8042B51F8043BCCFA52F4D51A9E
:100BF0000ED16CB950F8042B51F8043BCCFA52F4E6
:100C0000D51A05D1002CDAD030BC4FF00000704767
:100C100029BAB1FA81F111F01801D1F12000844014
:100C2000F2D1CA40CB4012F0FF0213F0FF0330BCF8
:100C3000D01A704701491820ABBEFEE7260002001B
:100C400070470000FEE70000704700004FF480503E
:100C500000F0BAB8B0B5044600F098F9054640F285
:100C60000000C2F200000078611C18BF044400BFFD
:100C700000F08CF9401BA042FAD3B0BDB0F5805F04
:100C800018BF704780B584B002200DF10E01CDE988
:100C9000001040F260104FF00A0CC2F20000D021A8
:100CA00047220123CDF808C000F028FABDF80E0055
:100CB0009FED3D1AC1BA00EE101AB8EEC00A80EEE0
:100CC000010A00BA010C40F23810C2F2000090EDA7
:100CD000021A9FED363A41809FED354A80ED010AB8
:100CE00030EE410AB0EEC01AB4EE431A9FED311A4D
:100CF00090ED032AF1EE10FAB8BFB0EE440A20EEF0
:100D0000010A30EE020A80ED030A90ED030A9FED1E
:100D10002A1AB4EE410AF1EE10FA07DD90ED030A4B
:100D20009FED261A30EE010A80ED030A90ED030ACA
:100D30009FED231AB4EE410AF1EE10FA07DA90EDB6
:100D4000030A9FED201A30EE010A80ED030A417874
:100D500029B3017801310170017802291FD30021E4
:100D6000017040F2F801C2F2000191ED061A40F262
:100D70001811C2F2000190ED040A91ED062A90EDDF
:100D8000053A31EE400A72EE430A80ED041A80ED16
:100D9000052A02F041FB01F06DFF03F01FF804B0DB
:100DA000BDE88040704700BF00000343CDCC4C3D00
:100DB000000000000AD7233C000034430000B4C305
:100DC000000034C30000B44343F61441C4F20101EF
:100DD0000A68024214BF08607047FFF74FBF000067
:100DE0002DE9F04F83B000F1200200F13E4741F6BB
:100DF0000045009207F1FF77C4F2020508224FEA8E
:100E0000B726A84208BF072200254FF000084FF080
:100E10000009072E38BF4FEAB72201920AE000BF4F
:100E200009F1010908F10208B9F1100F05F10405F3
:100E300000F0A2800F68012202FA09FE17EA0E0AEA
:100E4000EED0D1F804C003220CF003077E1E02FA94
:100E500008F4012E6FEA040B12D88468CE6804EA05
:100E60000B0406FA08F634438460446824EA0E064C
:100E7000CCF3001404FA09F42643466004E000BFF2
:100E8000032F01D103271EE0C6688C6806EA0B0613
:100E900004FA08F42643022FC66014D16FF003024F
:100EA000009E02EA590756F807C005F01C040F22FD
:100EB0000B69A2402CEA0202A3401A43F251D1F876
:100EC00004C00CF00307026807FA08F302EA0B02F9
:100ED0001A431CF4403F0260A2D0002243F64403B0
:100EE0000292C4F202031A6843F6004442F48042BC
:100EF0001A601A68C4F2010402F480420292029A53
:100F000029F003024FF6084C2244CFF6FF7C52F83A
:100F10000C3005F00C070F26BE40B343019E06FAC5
:100F200007F73B4342F80C30A2684B6842EA0A07D5
:100F300043F60C4CDE0258BF22EA0A07A760C4F24F
:100F4000010CDCF800209E0242EA0A0758BF22EAA0
:100F50000A07CCF8007062689E0342EA0A0758BF8D
:100F600022EA0A0767602268DB0342EA0A0758BFE1
:100F700022EA0A07276053E703B0BDE8F08F0000BC
:100F8000002A08BF090481617047000040F2E42094
:100F9000C2F2000000687047002804BF01207047BB
:100FA000F0B581B0044690F83D0028B9002084F8DF
:100FB0003C00204600F07CFA242084F83D002068A4
:100FC000016821F001010160016841F40041016004
:100FD000016821F40041016000F010FC636848F2F0
:100FE000A16CC0F2010C40F60011C0F23D01634556
:100FF0003CBF48F28041C0F21E01884202D201206B
:1010000001B0F0BD4DF68361C4F21B31A0FB0112AB
:101010002168970CD1F804E04FF496762EF03F0546
:1010200045EA92454D60774348F638160D6AC0F29E
:101030004106A7FB067625F03F07634538BF960CAF
:10104000721C3A430A62CA6948F2A0664CF6FF77FE
:10105000C0F20106B34222EA07020BD801385B0056
:10106000B0FBF3F001306FF31F30042898BF042069
:101070001BE000BFA768013857B119277B43B0FBBD
:10108000F3F001306FF31F3070B100F5804007E0DE
:1010900003EB4303B0FBF3F001306FF31F3018B1E3
:1010A00000F5004001E000BF01201043C86108685E
:1010B000D4E9072320F0C000104318430860886873
:1010C00048F2FF3204F10C0790438CCF18431043D1
:1010D000A6698860C86820F0FF0038433043C860C4
:1010E000086840F00100086000202021206484F896
:1010F0003D10206384F83E0001B0F0BD2DE9F047BB
:1011000084B0994616460F460446FFF73FFF94F811
:101110003D10202927D10546206800BF8169890735
:101120001CD5FFF733FF411B20681A29F6D38169CC
:101130008907F3D500202021206384F83D1084F82E
:101140003E00206C04F13C0A40F0200020640220A4
:1011500000218AF8001004B0BDE8F087A2461AF812
:101160003C1F012904D1022004B0BDE8F08700BF74
:1011700001228AF800200368DDE90D180C9ADB07CC
:1011800003D1036843F001030360036823F40063A1
:101190000360222084F83D00402084F83E000020B7
:1011A000206462626185608D394620850020CFF61B
:1011B000FF70E062204632464B46CDE9008501F0E3
:1011C000DBFD18B1012004B0BDE8F087208D08B325
:1011D000022813D0012835D121680A6822F48062E0
:1011E0000A60002203924A6903928A690392039A71
:1011F0000A6842F400720A602CE000BF21680A68A5
:1012000022F480620A600A6842F400620A600022E6
:1012100003921AE0002003902068416903918169DC
:1012200003910399016841F400710160202084F862
:101230003D00002084F83E0000218AF8001004B030
:10124000BDE8F0870021039121684A69039289690A
:10125000039103990427C0F201070CE0106908709C
:10126000606A218D01306062481E2085618D0139E0
:1012700061850104DAD080B203280FD802284AD051
:1012800001282DD1204641462A4602F013F80028B5
:1012900098D12068616A0069E1E700BF20464146B5
:1012A0002A4602F007F800287FF48CAF2068616AB4
:1012B00000690870606A2268411C208D61620138F3
:1012C0002085638D013B638553695B07D1D580B26F
:1012D0000328C3D1106820F480601060BEE700BF0F
:1012E0002046394600224346009501F091FE002831
:1012F0007FF468AF2068616A026822F4806202604D
:1013000000690870606A218D01306062481E208586
:10131000608D01386085204639460022434600959D
:1013200001F076FE00287FF44DAF2068616A026804
:1013300042F40072026000690870606A2268411C11
:101340006162218D01392185618D013961851169C4
:10135000417085E72DE9F04383B0994616460F4664
:101360000446FFF713FE94F83D10202924D10546CA
:10137000206800BF816989071AD5FFF707FE411B66
:1013800020681A29F6D381698907F3D50020202126
:10139000206384F83D1084F83E00216C41F0200168
:1013A000216484F83C00022003B0BDE8F08300BF54
:1013B00094F83C10012903D1022003B0BDE8F0836A
:1013C000012284F83C200368DDE90B180A9ADB0748
:1013D00003D1036843F001030360036823F400634F
:1013E0000360212084F83D00402084F83E00002066
:1013F000206462626185608D394620850020CFF6C9
:10140000FF70E062204632464B46CDE9008501F090
:101410003DFD18B1012003B0BDE8F083208D98B9DF
:10142000204641462A4601F095FD88B3206C0428E9
:10143000F0D12068016841F400710160012003B01F
:10144000BDE8F0830004EBD0204641462A4601F077
:1014500079FF0028EAD1616A2268084610F8013B4A
:101460001361238D6062581E2085678D013F67855B
:1014700057697F07E6D50704E4D048781061881CD7
:101480006062981E2085618D01396185DAE700BFB1
:101490002068016841F400710160202084F83D005B
:1014A000002084F83E0084F83C0003B0BDE8F083DF
:1014B000B0B586B045F600010068C4F20001002412
:1014C00088420594CDE903440294019402D006B009
:1014D000B0BD00BF43F630050094C4F20205286891
:1014E00040F002002860286800F002000090009898
:1014F0004FF4406001901220CDE9020403200490D3
:101500000420059001F5D63001A9FFF769FC00948D
:10151000286940F480002861286900F48000009068
:10152000009806B0B0BD000040F2000040F2E42197
:10153000C2F20000C2F2000100780A68104408609C
:101540007047000080B543F60040C4F20200016815
:1015500041F400710160016841F48061016001683B
:1015600041F480710160032000F086F80F2000F044
:1015700005F800F027F8002080BD000070B540F2AB
:101580000006C2F2000640F208013278C2F2000101
:101590004FF47A730968B3FBF2F20446B1FBF2F13F
:1015A000084600F061FB0F2C4FF0010508D838B950
:1015B0004FF0FF3021460022002500F031F8746022
:1015C000284670BD82B0002043F640010190C4F26D
:1015D00002014A6842F480424A604A6802F480424A
:1015E0000192019A0090086840F0805008600868F5
:1015F00000F080500090009802B07047002848BF6B
:10160000704700F01F01012202FA01F11C2202EAD8
:10161000D0004EF20012CEF200028150704700005E
:1016200010B54EF60C5CCEF2000CDCF80030C3F3C3
:10163000022E8EF00704042C28BF0424BEF10303FD
:101640004FF0FF3E0EFA04F438BF0023A143994047
:101650000EFA03F39A43114300F00F0200F16043C6
:101660000901043A03F564436244002848BF02F1CB
:101670000C03197010BD00004EF60C51CEF20001A3
:101680000A684FF6FF031A4060F30A2242F08060B6
:1016900040F0FD7008607047002804BF01207047CB
:1016A0002DE9F04143F60808C4F202080446D8F8D0
:1016B000F8030D4600F00700814207D988F8F85377
:1016C000D8F8F80300F00700A84277D12068810716
:1016D00017D5410705D5D8F8001041F4E051C8F8F6
:1016E0000010010705D5D8F8001041F46041C8F892
:1016F0000010D8F80010A26821F0F0011143C8F8DA
:101700000010C00740D1D8F8F80300F00700854268
:1017100007D288F8F853D8F8F80300F00700A84279
:101720004CD12068410707D5D8F80010E26821F4B1
:10173000E0511143C8F80010000708D5D8F80000A0
:10174000216920F4604040EAC100C8F8000000F0C0
:101750007DF8D8F8001044F66872C1F30311C0F6A2
:101760000002515C40F2080220FA01F140F204004C
:10177000C2F200000068C2F200021160FFF7FEFE34
:101780000020BDE8F08100BF6068811E022907D2F9
:1017900058F8081C89015CBF0120BDE8F08111E008
:1017A000012807D158F8081C89035CBF0120BDE857
:1017B000F08107E058F8081C890703D40120BDE830
:1017C000F08100BFD8F8001021F003010843C8F8E9
:1017D0000000FFF7DBFB064641F28837D8F800002F
:1017E000616800F00C00B0EB810F8CD0FFF7CEFBEE
:1017F000801BB842F2D90320BDE8F08140F2080016
:1018000043F60801C2F20000C4F202010068096850
:1018100044F67872C1F38221C0F60002515CC840E0
:101820007047000040F2080043F60801C2F20000D1
:10183000C4F202010068096844F67872C1F34231CB
:10184000C0F60002515CC8407047000010B543F676
:101850000404C4F202046168C1F3810142F2004051
:10186000C0F2F400DFE801F002040A0210BD00BF7C
:1018700041F20020C0F27A0010BD00BF216801F0E3
:101880003F02216823684902C3F3881106D4A1FBF3
:1018900000010023FEF70EFD07E000BF41F200202B
:1018A000C0F27A004843B0FBF2F021680222C1F393
:1018B000014102EB4101B0FBF1F010BD002804BF73
:1018C000012070472DE9F04182B00446007843F6CC
:1018D0000006C007C4F202060CD0B06800F00C008D
:1018E000042840F081803068800303D560680028B8
:1018F00000F06881207880071BD5B06810F00C0FCD
:1019000009D0B06800F00C00082840F087807068AB
:10191000400200F183803068800703D5E068012829
:1019200040F050813068216920F0F80040EAC100A1
:1019300030602078000713D4207840072AD4A569A6
:10194000002D00F03A81B06800F00C00082840F04B
:10195000A580012D40F00E81012002B0BDE8F0818C
:101960006069002800F082800020C4F24720012135
:10197000C0F8801EFFF70AFB054600BF706F8007A6
:10198000DAD4FFF703FB401B0228F7D9032002B08B
:10199000BDE8F081306C5FEAC0080AD400200190F5
:1019A000306C40F080503064306C00F0805001901A
:1019B000019847F20007C4F200073868C00547D411
:1019C000386840F480703860FFF7E0FA054600BFE1
:1019D0003868C0053CD4FFF7D9FA401B0228F7D974
:1019E000032002B0BDE8F081B06800F00C000828C8
:1019F00003D1706840023FF576AF61683068B1F599
:101A0000803F07D0B1F5A02F40F09A8040F48020AD
:101A10003060306840F4803030609AE0E068002840
:101A200040F20000C4F247205CD001210160FFF7C2
:101A3000ADFA0546306880073FF574AFFFF7A6FAA8
:101A4000401B0228F6D9032002B0BDE8F08100BF98
:101A5000A168306F012905D0052955D140F0040057
:101A60003067306F40F00100306756E00020C4F26C
:101A700047200021C0F8801EFFF788FA054600BF06
:101A8000706F80077FF558AFFFF780FA401B022880
:101A9000F6D9032002B0BDE8F08100BF0027C4F2F0
:101AA000472700203866FFF771FA022D05460DD151
:101AB0003068800140F18A80FFF768FA401B0228F5
:101AC0004FF00300F4D902B0BDE8F0813068800126
:101AD00073D5FFF75BFA401B02284FF00300F5D9DE
:101AE000F1E700BF00210160FFF750FA054600BF93
:101AF000306880077FF51DAFFFF748FA401B0228CA
:101B00004FF00300F4D9DEE720F001003067306FBA
:101B1000002920F0040030677AD0FFF737FA054635
:101B200041F28837306F800700F18480FFF72EFA8A
:101B3000401BB842F6D9032002B0BDE8F08100BFD7
:101B400020F4803030603068002920F4802030603C
:101B50007AD0FFF71BFA0546306880033FF5CAAE1E
:101B6000FFF714FA401B6428F6D9032002B0BDE841
:101B7000F08100BF7068E16900F480028A4221D1DF
:101B8000216A00F03F028A421CD147F6C071626AA6
:101B90000140B1EB821F15D1A16A4FF6FF73C90353
:101BA000994300F44032A1F580318A420AD1E16ABA
:101BB00000F07060B0EB016F04D1002002B0BDE80E
:101BC000F08100BF012002B0BDE8F08104F11C05E6
:101BD0002FCD084340EA8210D9034FF6FF7291439C
:101BE000A1F5803140EA0560084370600120386645
:101BF000FFF7CCF9044600BF30688001DDD4FFF761
:101C0000C5F9001B02284FF00300F5D95BE700BFC0
:101C1000FFF7BCF9054641F2883700BF306F8007F7
:101C200008D5FFF7B3F9401BB8424FF00300F5D9D0
:101C300049E700BFB8F1000F3FF581AE306C20F0EE
:101C4000805030647BE600BFFFF7A0F9054600BF77
:101C5000306880037FF54EAEFFF798F9401B64288B
:101C60004FF00300F4D92EE7411E0020B0EB116FB6
:101C70001CBF012070474EF21002CEF200025160EC
:101C80004EF62351CEF20001F0230B700721906035
:101C900011607047704700007047000090F83C20CA
:101CA000012A4FF0020254D010B580F83D2002689E
:101CB000D2F804E0D2F808C00C682EF07003234379
:101CC00041F2FF74C4F20004A24253600EDC40F201
:101CD000FF73C4F200039A4216DCB2F1804F2BD09E
:101CE00040F20043C4F2000324E000BF40F2FF339F
:101CF000C4F201039A4213DC41F60003C4F200036C
:101D00009A4219D0002313E040F60003C4F2000306
:101D10009A4211D040F60043C4F200030AE000BF2B
:101D200044F20003C4F201039A4205D040F200439A
:101D3000C4F201039A4204D149682CF0800319438C
:101D400091600121002280F83D1080F83C20BDE820
:101D50001040104670470000002804BF0120704763
:101D600010B5044690F83D0028B9002084F83C00E6
:101D7000204600F01FF8022084F83D002068211D55
:101D800001F0CEFC012084F8460084F83E0084F87F
:101D90003F0084F8400084F8410084F8420084F851
:101DA000430084F8440084F8450084F83D00002096
:101DB00010BD000080B586B0006840F60042C4F255
:101DC000000200219042CDE90411CDE902110191F8
:101DD0004AD040F60001C4F20001884232D0B0F18E
:101DE000804F70D1002043F640010090C4F2020100
:101DF0000A6842F001020A600A6802F001020092D9
:101E0000009A009051F8102C42F0010241F8102C79
:101E100051F8101C022201F00101009100990121EA
:101E2000CDE90220CDE9040100200191C4F20200B5
:101E300001A9FEF7D5FF1C2001210022FFF7F0FBCE
:101E40001C203EE00020009043F64000C4F2020057
:101E5000016841F004010160006800F00400009096
:101E6000009806B080BD00BF43F640000091C4F268
:101E70000200026842F008020260026802F00802F2
:101E80000092009A009150F8102C42F0010240F8A4
:101E9000102C50F8100C00F0010000900098022067
:101EA000CDE9010005900020CDE90311C4F2020044
:101EB00001A9FEF795FF322001210022FFF7B0FBB8
:101EC0003220FFF79BFB06B080BD000090F83D106C
:101ED00001291CBF01207047022180F83D100068D5
:101EE00041F2FF71C4F2000188420DDC40F2FF7143
:101EF000C4F20001884215DCB0F1804F2AD040F2D4
:101F00000041C4F2000123E040F2FF31C4F20101BC
:101F1000884213DC41F60001C4F20001884219D066
:101F2000002113E040F60001C4F20001884211D004
:101F300040F60041C4F200010AE000BF44F2000193
:101F4000C4F20101884205D040F20041C4F201010F
:101F5000884206D1816801F00701062904BF0020EC
:101F60007047016841F001010160002070470000E6
:101F700090F83C20012A4FF002026CD080B580F826
:101F80003D20D0F800C04FF67772DCF8083023EA25
:101F90000202CCF808200B684F2B29DC1F2B45DDF3
:101FA000202B46D0302B44D0402B40F0AF80D1F8CE
:101FB00004E0C968DCF82030DCF8202022F00102BF
:101FC000CCF82020DCF8182022F0F00242EA0111BF
:101FD00023F00A0242EA0E02CCF81810CCF82020B6
:101FE000DCF8081041F0470121F0300128E000BF83
:101FF0006F2B33DDB3F5005F74D0B3F5805F21D074
:10200000702B40F08380D1E901E3C968DCF8082037
:1020100043EA0E0322F47F4243EA01211143CCF844
:102020000810DCF8081041F0770109E00BB1102B23
:102030006CD1DCF8081021F07001194341F0070160
:10204000CCF808100022012180F83D10002180F812
:102050003C10BDE880401046704700BF502B21D097
:10206000602B53D1D1F804E0C968DCF82030DCF8EB
:10207000202022F01002CCF82020DCF8182022F4D6
:10208000704242EA013123F0A00242EA0E12CCF87B
:102090001810CCF82020DCF8081041F0670121F07E
:1020A0001001CDE7D1F804E0C968DCF82030DCF895
:1020B000202022F00102CCF82020DCF8182022F0A9
:1020C000F00242EA011123F00A0242EA0E02CCF8C1
:1020D0001810CCF82020DCF8081041F0570121F04E
:1020E0002001ADE7D1E901E3C968DCF8082043EA43
:1020F0000E0322F47F4243EA01211143CCF8081079
:10210000DCF8081041F480419AE700BF01229AE709
:1021100070B50446FEF73AFF40F25816C2F20006C8
:1021200030602068B0F1804F06D040F60041C4F224
:10213000000188422BD070BD2046002100F020FD18
:1021400040F2F401C2F200018A680B69821A356814
:102150000133652AC1E902050B6167D291F90000DC
:10216000B0F1FF3F40F3898091F90000012807DBBF
:1021700091ED070A9FED4B1A30EE010A81ED070A37
:10218000206840F60041C4F200018842D3D12046C5
:10219000042100F0F5FC40F2F401C2F200018A6A69
:1021A0000B6B821A36680133652AC1E90A060B6394
:1021B00020D34A6200EE102A9FED371A91F90100F0
:1021C000B8EE400A81EE001AB0F1FF3FDCBFB1EE7D
:1021D000412A81ED0D2A91F901000128A8BF81ED66
:1021E0000D1A9FED2E1A012081EE000A81F84000A1
:1021F00081ED0E0A91F90100B0F1FF3F07DC91ED8E
:102200000F0A9FED271A30EE010A81ED0F0A91F9AE
:1022100001000128B8BF70BD91ED0F0A9FED211A92
:1022200030EE010A81ED0F0A70BD00BF4A6000EE7A
:10223000102A9FED191A91F90000B8EE400A81EEBC
:10224000001AB0F1FF3FDCBFB1EE412A81ED052A53
:1022500091F900000128A8BF81ED051A9FED0F1A22
:10226000012081EE000A81F8200081ED060A91F933
:102270000000B0F1FF3F3FF777AF91ED070A9FED08
:10228000081A30EE010A81ED070A91F900000128D1
:10229000BFF66EAF74E700BFB8881F46001B374A11
:1022A000954827BC9548273C90F83C30012B04BF4B
:1022B000022070474FEAB202032A00F28D80F0B587
:1022C000DFE802F0026426460368D1E900C5D1F8D0
:1022D0000CE01C6A1A6A41F2FF7722F001021A62CE
:1022E0001A4652F8186FC4F20007BB427ADC40F27B
:1022F000FF77C4F20007BB4200F38280B3F1804F46
:1023000000F0968040F20047C4F200078EE000BF64
:102310000768D1E900C5D1E902313C6A3A6A61F344
:10232000071522F480723A623A4652F81C6F26F082
:10233000F30645EA060124F420660CF00A0546EA95
:10234000052611603E62116821F00C01116080E0E9
:102350000368D1E900E6D1E902C11C6A1A6A3602B3
:1023600022F480521A621A4652F81C5F4FF2FF079D
:10237000BE4325F4734561F30F3624F420440EF078
:102380000A0746EA050144EA07371CE00368D1E979
:1023900000E6D1E902C11C6A1A6A360222F0100274
:1023A0001A621A4652F8185F4FF2FF07BE4325F42F
:1023B000734561F30F3624F0A0040EF00A0746EAD5
:1023C000050144EA071711601F6211684FEA0C23E8
:1023D00021F4406111603CE00121002280F83C20A2
:1023E0000846704740F2FF37C4F20107BB4213DCD6
:1023F00041F60007C4F20007BB4219D0002713E0E2
:1024000040F60007C4F20007BB4211D040F6004777
:10241000C4F200070AE000BF44F20007C4F201075B
:10242000BB4205D040F20047C4F20107BB421BD1BA
:1024300026F00306354324F00A070CF00A066EF373
:10244000071537449D611F629F6927F00C079F6144
:102450008B681168194311600021BDE8F04000222B
:1024600080F83C200846704746F00105E3E700008D
:10247000002804BF0120704710B5044690F83D00C5
:1024800028B9002084F83C00204600F01FF8022004
:1024900084F83D002068211D01F042F9012084F8F4
:1024A000460084F83E0084F83F0084F8400084F839
:1024B000410084F8420084F8430084F8440084F822
:1024C000450084F83D00002010BD0000704700006A
:1024D00031B3042908D0082919BF4FF0450C412316
:1024E0004FF0440C402302E04FF0430C3F23C25C0A
:1024F00010F80C30012A4FF0010208BF012B63D104
:102500000222082922D0042954D180F83F2080F8E3
:1025100043204FEAB103032B4FF0010220D953E0CF
:1025200090F83E2090F84230012A4FF0010208BF97
:10253000012B49D1022280F83E2080F842204FEA48
:10254000B103032B4FF001020AD93DE080F840208F
:1025500080F844204FEAB103032B4FF0010233D837
:1025600044F6807C0068C0F6000C5CF823C0C368A9
:1025700001F01F0143EA0C03C360036A02FA01F190
:1025800023EA01020262026A114341F2FF72C4F2BD
:1025900000029042016219DC40F2FF71C4F20001B6
:1025A000884221DCB0F1804F36D040F20041C4F2C5
:1025B00000012FE080F8412080F845204FEAB10368
:1025C000032B4FF00102CBD91046704740F2FF3188
:1025D000C4F20101884213DC41F60001C4F200019B
:1025E000884219D0002113E040F60001C4F2000136
:1025F000884211D040F60041C4F200010AE000BF59
:1026000044F20001C4F20101884205D040F20041C9
:10261000C4F20101884206D1816801F00701062950
:1026200004BF00207047016841F0010101600020F3
:102630007047000070B504460068C5680669B107B8
:1026400016D515F0020113D06FF0020101610121CE
:1026500021778069800703D02046FFF759FD05E008
:10266000204600F0BFF8204600F0FEF90020207759
:10267000700719D515F0040016D020686FF004011A
:10268000016102212177806910F4407F04D0204647
:10269000FFF73EFD06E000BF204600F0A3F820460D
:1026A00000F0E2F900202077300717D515F0080078
:1026B00014D020686FF00801016104212177C069FE
:1026C000800703D02046FFF723FD05E0204600F0F9
:1026D00089F8204600F0C8F900202077F00619D5C7
:1026E00015F0100016D020686FF01001016108216C
:1026F0002177C06910F4407F04D02046FFF708FD21
:1027000006E000BF204600F06DF8204600F0ACF96E
:1027100000202077F00718BF15F0010002D1300625
:1027200009D412E020686FF001010161204600F039
:1027300025FA300609D515F0800006D020686FF024
:10274000800101612046FFF7A5FA700609D515F052
:10275000400006D020686FF040010161204600F083
:102760001BFAB00658BF70BD15F0200008D02168D4
:102770006FF0200220460A61BDE87040FFF78CBA76
:1027800070BD000080B586B040F600010068C4F25C
:102790000001002288420592CDE9032202920192B3
:1027A00002D006B080BD00BF43F630000092C4F2F4
:1027B0000200036843F008030360006800F00800AB
:1027C000009000984FF4704001900220CDE9020281
:1027D000CDE9042001F5013001A9FEF701FB06B0A7
:1027E00080BD00007047000090F83C30012B04BF12
:1027F000022070474FEAB202032A00F2FF802DE95F
:10280000F043DFE802F003B13F7F00BF036840F20E
:1028100000461C6A1A6A24F0020422F001021A62BD
:102820001A46D3F804C052F818EF8F6843F4806555
:10283000C4F20106B54244EA070405D1CF6824F08A
:102840000C0427F004073C430F68B54206D1D1E9D8
:1028500005582CF440762E4346EA080C2EF07306F9
:102860003743C3F804C09F614F6809695F631C6206
:102870009F6947F008079F619F6927F004079F61E0
:10288000B1E000BF036840F200481C6A1A6A24F4F1
:10289000007422F480721A621A46D3F804C052F807
:1028A0001CEF8F6843F48065C4F20108454544EA93
:1028B000072408D1CF6840F2FF463F0224F4406469
:1028C00027EA06063443D1F80090454506D1D1E900
:1028D00005562CF440572E4347EA061C2EF073078A
:1028E00047EA0907C3F804C0DF614F680969DF637D
:1028F0001C62DF6947F00807DF61DF6927F0040722
:10290000DF6170E0036840F20045D3F820C01A6A26
:1029100043F4806722F480521A621A465C6852F8C7
:102920001C8FD1F800E08E68C4F20105AF4204D1DB
:102930004D6924F4804444EA85142CF4005747EA96
:10294000063728F4E64646EA0E265C60DE614E68ED
:1029500009691E641F62DF6947F40067DF61DF6990
:1029600027F48067DF613DE0036840F200481C6A9D
:102970001A6A24F0200422F010021A621A46D3F8D0
:1029800004C052F818EF8F6843F48065C4F2010860
:10299000454544EA071407D1CF686FF0400624F09C
:1029A000C00406EA07163443D1F80090454506D125
:1029B000D1E905562CF440672E4347EA860C2EF4E5
:1029C000E64747EA0927C3F804C09F614F680969D1
:1029D0009F631C629F6947F400679F619F6927F4AA
:1029E00080679F6109021368194311600021BDE8E7
:1029F000F043002280F83C20084670470121002265
:102A000080F83C2008467047002804BF012070472A
:102A100010B5044690F83D0028B9002084F83C0029
:102A2000204600F01FF8022084F83D002068211D98
:102A300000F076FE012084F8460084F83E0084F819
:102A40003F0084F8400084F8410084F8420084F894
:102A5000430084F8440084F8450084F83D000020D9
:102A600010BD00007047000070470000C1B104298C
:102A700008D0082914BF41224022825C012A05D0D7
:102A800016E000BF3F22825C012A11D102220829F0
:102A900010D0042914BF80F8412080F83F200BE0BB
:102AA00090F83E20012A03D1022280F83E2003E064
:102AB0000120704780F84020006801F01F010122CA
:102AC000036A02FA01F123EA01020262026A114377
:102AD00041F2FF72C4F20002904201620CDC40F24B
:102AE000FF71C4F20001884214DCB0F1804F37D08E
:102AF00040F2004116E000BF40F2FF31C4F2010194
:102B0000884215DC41F60001C4F20001884227D05A
:102B1000002115E040F60001C4F2000188421FD0F8
:102B200040F60041C4F20001884219D01FE000BF06
:102B300044F20001C4F20101884211D040F2004188
:102B4000C4F20101884212D1416C40F2004340F4CA
:102B50008062C4F2010341F400419A42416406D10B
:102B6000816801F00701062904BF00207047016851
:102B700041F0010101600020704700007047000033
:102B80004FEAB101032984BF00207047006800EBC1
:102B90008100406B7047000070470000002804BFB0
:102BA0000120704710B5044690F8410028B9002074
:102BB00084F84000204600F021F8242084F84100E9
:102BC0002068C16821F40051C160204600F046FE33
:102BD0002068016921F490410161416921F02A01D5
:102BE0004161C16841F40051C1600020202160644E
:102BF00084F8411084F84210606310BD80B586B03F
:102C000041F200010068C4F20101002288420592ED
:102C1000CDE903220292019202D006B080BD00BF2E
:102C200043F630000092C4F20200436943F01003FF
:102C30004361436903F010030093009B0092036813
:102C400043F002030360006800F002000090009867
:102C5000C02001900220CDE9020203200490072049
:102C6000059001F5744001A9FEF7BAF806B080BDE1
:102C7000FEE7000080B540F27400C2F2000090ED63
:102C8000000A40F24410C2F20000D0ED000A01F048
:102C90005FFA40F25410C2F2000090ED001A80ED8D
:102CA000000A40F20C00C2F2000090ED002A9FEDF5
:102CB0002B3AB0EEC22A82EE032A9FED274A30EE6D
:102CC000411A81EE041AB7EE005A9FED266A35EEDE
:102CD000422AB4EE432A9FED225AF1EE10FAB8BF11
:102CE000B0EE432AB0EEC03A22EE055AB4EE463AB0
:102CF0009FED1D3AF1EE10FAB8BFB0EE452A9FEDF8
:102D00001B5A22EE032A90ED003A21EE051A22EE1C
:102D1000000A23EE043A30EE010A40F25C1033EE72
:102D2000000AC2F2000080ED000A90ED001A9FED4B
:102D3000100AB4EE401AF1EE10FA0ADB90ED001A18
:102D40009FED0C0AB4EE401AF1EE10FAD8BF90EDE8
:102D5000000A80ED000A80BD0AD7A33C9A99993EEB
:102D60009A99193FC3B8323E295C0F3D0AD7233BDD
:102D70009A9999BF9A99993F2DE9F04782B00446F4
:102D800000689A460B9D0A9E0368914643F4806250
:102D9000026002680F4642F48071016020464FF0E5
:102DA000011100223346009500F032F950B120683D
:102DB0000068C00544BF4FF400702064032002B0D7
:102DC000BDE8F08740F202082068C0F2010807F071
:102DD000FE0707612046414632462B4600F0FEF9C9
:102DE00020B1012002B0BDE8F08700BF00200190B3
:102DF00020682A4641690191806931460190019815
:102E0000204600F09FFAB0B92068BAF1010F09D04E
:102E10004FEA19210161204631462A4600F092FA14
:102E200048B920685FFA89F10161204631462A4697
:102E300000F088FA60B1206C0428D2D120680168C3
:102E400041F400710160012002B0BDE8F08700BFCD
:102E5000206800220168334641F4807101602046F9
:102E60004FF00111009500F0D3F800289FD147F0F2
:102E7000010C27682046414632462B46C7F810C051
:102E800002B0BDE8F04700F0A9B900002DE9F04319
:102E900083B0044600680F4601680A9D0B9E41F40A
:102EA000807199469046016020464FF00111002242
:102EB0002B46009600F0ACF850B120680068C005C1
:102EC00044BF4FF400702064032003B0BDE8F083DA
:102ED000206807F0FE0101610221C0F201012046D5
:102EE0002A46334600F07AF920B1012003B0BDE84C
:102EF000F08300BF002002902068324641690291B1
:102F00008069294602900298204600F01BFA58B1C9
:102F1000206C0428E9D12068016841F40071016047
:102F2000012003B0BDE8F0832068B9F1010F0AD099
:102F30004FEA1821016120462946324600F002FA84
:102F40000028E5D120685FFA88F10161002003B014
:102F5000BDE8F08370B50368044653F8140F4007CA
:102F600011D40E46481C29D086BB00BF1868400506
:102F700027D4FEF70BF8236853F8140F400737D512
:102F800018684007F2D5002070BD00BF18684007E0
:102F9000F9D41868400514D418684007F3D41868A9
:102FA00040050ED418684007EDD41868400508D4D1
:102FB000186840074FF0000048BF70BD1868400512
:102FC000E4D56FF480601860042012E0154603E039
:102FD00053F8140F4007D6D418684005F1D4FDF714
:102FE000D5FF401B2368B042F2D958694007EFD49F
:102FF000202000212022216384F83D2084F83E1007
:10300000226C10432064012084F83C1070BD000045
:103010002DE9F041054600681E46144601F47F0282
:1030200001338FB242D0DDF81880B2F5803F40F016
:10303000878040693840C01BB0FA80F04009844264
:1030400040F0C8804EB924E040693840C01BB0FA57
:1030500080F04009844240F0BD80FDF797FFA0EB6F
:1030600008012868B142EFD941693940C91BB1FA5A
:1030700081F149098C42E7D19BE000BF40693840AB
:10308000C01BB0FA80F0400984424FF0000040F0CD
:10309000A280FDF77BFF286841693940C91BB1FA5E
:1030A00081F149098C42E9D183E000BFB2F5803F4C
:1030B00024D100BF41693940C91BB1FA81F14909E6
:1030C0008C4240F0878041693940C91BB1FA81F1D7
:1030D00049098C4240F07E8041693940C91BB1FAF0
:1030E00081F149098C4275D141693940C91BB1FA56
:1030F00081F149098C42DDD06CE000BF8169394023
:10310000C91BB1FA81F149098C4263D18169394007
:10311000C91BB1FA81F149098C425BD181693940FF
:10312000C91BB1FA81F149098C4253D181693940F7
:10313000C91BB1FA81F149098C42DFD04AE000BFD6
:1031400080693840C01BB0FA80F04009844241D108
:1031500046B923E080693840C01BB0FA80F04009CE
:10316000844237D1FDF712FFA0EB08012868B14275
:10317000F0D981693940C91BB1FA81F149098C4202
:10318000E8D116E080693840C01BB0FA80F04009F1
:1031900084424FF0000018BFBDE8F081FDF7F6FE55
:1031A000286881693940C91BB1FA81F149098C420B
:1031B000E8D100202021286385F83D1085F83E00E5
:1031C000296C41F02001296485F83C000120BDE80C
:1031D000F08100BF0020BDE8F0810000F0B581B0B3
:1031E000044600681D4643698FB203EA0701B942ED
:1031F00002D1002001B0F0BD4169164601323CD039
:10320000490512D47EB300BFFDF7C0FE411B206804
:10321000B14203D941693940B9422BD141693940A2
:10322000B942E6D041694905EED5016841F4007123
:1032300001606FF48061416104200021202221633C
:1032400084F83D2084F83E10226C1043206484F8FA
:103250003C10012001B0F0BD41693940B942C8D0ED
:1032600041694905E1D4FDF791FE20684169394083
:10327000B942F1D02020E0E741694905D5D4416940
:103280003940B942B5D041694905CED44169394088
:10329000B942AED041694905C7D441693940B94204
:1032A000A7D041694905C0D441693940B942E3D149
:1032B0009FE7000070B504460068154650F8143FBB
:1032C0005A063DD40E4629B926E000BF50F8141F17
:1032D000490635D40168C90621D4FDF757FE411BC4
:1032E0002068B142F2D941694906EFD4002020217B
:1032F000206384F83D1084F83E00206C40F02000EC
:1033000018E000BFFDF742FE206850F8141F490680
:10331000ECD50168490613D40168C906F2D56FF0EF
:103320001001016000202021206384F83D1084F802
:103330003E00206C2064002084F83C00012070BD19
:10334000002070BD70B50368044653F8140F0006E2
:1033500011D40E46481C29D086BB00BF1868400512
:1033600027D4FDF713FE236853F8140F000637D552
:1033700018680006F2D5002070BD00BF186800066E
:10338000F9D41868400514D418680006F3D41868F6
:1033900040050ED418680006EDD41868400508D41E
:1033A000186800064FF0000048BF70BD186840055F
:1033B000E4D56FF480601860042012E0154603E045
:1033C00053F8140F0006D6D418684005F1D4FDF761
:1033D000DDFD401B2368B042F2D958690006EFD4E6
:1033E000202000212022216384F83D2084F83E1013
:1033F000226C10432064012084F83C1070BD000052
:1034000040F2C800C2F200000021C0E90011C0E98A
:10341000021101617047000010B52DED0A8B40F2DA
:10342000C80440F24410C2F20004C2F2000094ED5D
:1034300002AA90ED001A9FED429A9FED422A21EEDA
:10344000091A81EE02BA30EE200AB6EE001A20EE1A
:1034500001CA3AEE0B0A20EE018AB0EE480A84ED6A
:1034600002BA01F0D3FA94ED001A2CEE000A30EE05
:10347000010A84ED000AB0EE480A01F06FFB9FEDEF
:10348000321A94ED013A8CEE012A2CEE000A30EE4D
:10349000030A84ED010A3BEE4A0AB4EE490AF1EE52
:1034A00010FA84ED032A1DDD9FED282A30EE020A72
:1034B000B4EE490AF1EE10FA14DD30EE020AB4EE71
:1034C000490AF1EE10FA0DDD30EE020AB4EE490AB7
:1034D000F1EE10FA06DD30EE020AB4EE490AF1EE22
:1034E00010FAE3DC9FED1A2AB4EE420AF1EE10FA6C
:1034F0001EDA9FED183A00BF30EE030AB4EE420A1E
:10350000F1EE10FA14DA30EE030AB4EE420AF1EEEC
:1035100010FA0DDA30EE030AB4EE420AF1EE10FAB8
:1035200006DA30EE030AB4EE420AF1EE10FAE3DBFB
:1035300080EE010A84ED040ABDEC0A8B10BD00BFC9
:10354000DB0F4940000034430AD7A33CDB0FC9C05E
:10355000DB0F49C0DB0FC940FEE70000FEE70000BB
:10356000002180EC030AC0E90311C0E905111C30F9
:10357000C0EC041A704700000021C0E90311C0E943
:1035800005117047002851D0B5EE401AF1EE10FA3F
:10359000DCBF90ED060A704730EE602A90ED054AD8
:1035A00022EE013A90ED090A33EE043AB4EE403AC5
:1035B000F1EE10FA80ED032A0ADB90ED0A0AB4EE70
:1035C000403AF1EE10FAC8BFB0EE403AB0EE430A0E
:1035D00090ED043A90ED014A32EE433A83EE011A3F
:1035E00090ED003A90ED025A80ED050A20EE040AB3
:1035F00023EE023A33EE000A80ED042A25EE011A8A
:1036000031EE001A9FED0C0A80ED061AB4EE401A56
:10361000F1EE10FAB8BF70479FED080AB4EE401AF9
:10362000F1EE10FAD8BFB0EE410A70479FED010AE3
:10363000704700BF0000000000C079C400C079449A
:103640007047000070470000FDF76EBF70B592B084
:1036500006AC20463021FCF7E1FE002543F6400091
:103660000595CDE90355CDE901550095C4F2020059
:103670000168022641F080510160006800F080502E
:103680000090009847F200000095C4F20000016825
:1036900041F4804101600068A82100F4804000905E
:1036A0000098012006904FF4803007904FF480007E
:1036B0000D9004200E90119020460C96CDE90F1627
:1036C000FEF7FCF810B172B6FEE700BF0F20CDE99F
:1036D00001064FF4A05004904FF48050059001A8CB
:1036E00005210395FDF7D8FF10B172B6FEE700BFC4
:1036F00012B070BD4EF68850CEF20000016841F461
:10370000700101607047000040F2B410C2F2000086
:10371000FEF790BF40F24420C2F20000FEF78ABFDD
:10372000B0B540F6FF3E0568C4F2000E40F2004C12
:103730007045C4F2010C25DCB0F1804F2FD040F26F
:103740000043C4F20003984229D040F60003C4F2BB
:103750000003984223D041F6FF73C4F2000398425D
:1037600028DC70453ADCB0F1804F5BD040F200437A
:10377000C4F20003984255D040F60003C4F200039F
:103780004EE000BF40F60043C4F20003984206D06A
:10379000604504D00023C4F201039842DBD14B689A
:1037A00025F0700243EA020541F6FF73C4F20003FC
:1037B0009842D6DD43F6FF73C4F2010398421FDC42
:1037C00042F20003C4F2000398422BD00023C4F25B
:1037D0000103984226D0604524D028E040F60043FB
:1037E000C4F2000398421DD041F60003C4F2000366
:1037F000984217D041F60043C4F2000310E000BF26
:1038000044F20003C4F2010398420BD044F60003D3
:10381000C4F20103984205D044F20043C4F201030C
:10382000984204D1CB6825F4407243EA02050A6845
:103830008C684B69C46240F480648262644504BF52
:1038400009690163026825F0800142F0040219430E
:103850000260012242610160B0BD0000B0B50446C3
:10386000006804F108030ECB0569194325F440559F
:103870002A4302616269E3691143C268194349F24C
:103880000C639A431143C1604169A26921F44071FC
:1038900041F20043114340F48062C4F201039A42B2
:1038A000416103D1FDF7BEFF02E000BFFDF7A6FFB7
:1038B000E1694FF69C7563681922C0F6FF75B1F592
:1038C000004FA0FB02011FD15A00DB0FFCF7F2FCF6
:1038D00048F21F51C5F2EB11A0FB01235A0905F173
:1038E000805302FB0300322303EBC000A0FB010165
:1038F0004FF4F87000EA111000EB0210C1F342110E
:10390000084421688860B0BD9A009B0FFCF7D2FC88
:1039100048F21F51C5F2EB11A0FB01235A0902FB2B
:103920000500322303EB0010A0FB0101F02000EAA8
:10393000511000EB0210C1F3431108442168886064
:10394000B0BD0000FEE70000B0B540F2B414C2F212
:1039500000042046FEF7BAFA40F24425C2F2000500
:103960002846FEF7B3FA20460021FEF7B1FD2846AF
:103970000421BDE8B040FEF7ABBD00008EB00024CE
:10398000C4F20204FDF7DEFDFFF760FE002643F6F9
:1039900030000596CDE90366CDE901660896C4F2CC
:1039A00002000168002241F08001016001684025A9
:1039B00001F08001089108990896016841F0010121
:1039C0000160016801F001010891089908960168F9
:1039D00041F002010160016801F0020108910899BB
:1039E0000896016841F0080101600068402100F07C
:1039F0000800089008982046FDF7C2FA01950120BA
:103A000001ADCDE90206204629460496FDF7E8F906
:103A10004FF488104FF48057CDE9020604F580601A
:103A200029460197FDF7DCF9282002210022FDF745
:103A3000F7FD2820FDF7E2FD40F2FC10A4F5FC3173
:103A4000C2F2000040F2E733CDE909660D96CDE9F8
:103A50000B66CDE90666CDE90466A72280E846003C
:103A6000C0E903368661FEF777F918B172B600BF78
:103A7000FEE700BF40F2FC10C2F2000008A9089760
:103A8000FEF776FA10B172B6FEE700BF40F2FC1006
:103A9000C2F20000FEF7B8FF10B172B6FEE700BF39
:103AA00040F2FC10C2F200000CA9FEF7F7F818B1C2
:103AB00072B600BFFEE700BF602001900020CDE994
:103AC0000200059040F2FC10C2F2000001A90022A1
:103AD000FEF78AFE10B172B6FEE700BF40F2FC109E
:103AE000C2F2000001A90422FEF77EFE10B172B6F8
:103AF000FEE700BF40F2FC10C2F2000001A908225C
:103B0000FEF772FE10B172B6FEE700BF40F2FC1085
:103B1000C2F2000001A90C22FEF766FE10B172B6D7
:103B2000FEE700BF40F2FC10C2F20000FEF72AFEE2
:103B300040F244200021A4F5FA32C2F200005323DF
:103B40004FF0FF370491CDE90211CDE90C11C0E926
:103B50000023C0E9021701618161FEF7FDF818B189
:103B600072B600BFFEE700BF4FF48050019040F2F4
:103B70004420C2F2000001A9FEF7FAF910B172B6B2
:103B8000FEE700BF40F24420C2F20000FEF770FCE6
:103B900010B172B6FEE700BF40F24420C2F200004E
:103BA0000CA9FEF77BF808B172B6FEE700250120EC
:103BB000CDE9090507200B9040F24420C2F2000035
:103BC00008A904220895FEF76FFB08B172B6FEE75C
:103BD00040F26010A4F5D431C2F2000048F2A062B5
:103BE0004FF48043C0F2010280E82600C0E903538D
:103BF000C0E90555C0E90755FDF7CEF910B172B619
:103C0000FEE700BF40F2B4100021C2F200004FF006
:103C1000804253234FF0FF370491CDE90211CDE9E3
:103C20000C11C0E90023C0E9021701618161FEF7B0
:103C300093F808B172B6FEE74FF48050019040F25D
:103C4000B410C2F2000001A9FEF792F910B172B6E9
:103C5000FEE700BF40F2B410C2F20000FEF708FC1D
:103C600010B172B6FEE700BF40F2B410C2F200001D
:103C70000CA9FEF713F808B172B6FEE70025012083
:103C8000CDE9090507200B9040F2B410C2F2000004
:103C900008A900220895FEF707FB08B172B6FEE7F7
:103CA000A4F5704140F27004C2F20004204640F8CE
:103CB000101F4FF4E1310C22C0E90115C0E9035592
:103CC000C0E90525C561FEF769FF08B172B6FEE7D8
:103CD00007204FF47A7100F041F8FFF735FE00F04D
:103CE0005DFAFFF78DFB00F0D5F900F08FF94FF486
:103CF000FA70FCF7AFFF40F24410C2F2000000215E
:103D0000016040F2F800C2F20000816140F2181038
:103D1000C2F20000816140F24810C2F2000061600E
:103D2000016040F24C10C2F200000160FFF768FB36
:103D300040F28C20C2F20000FFF71EFC40F2B820D7
:103D4000C2F20000FFF718FC00F034F840F239101E
:103D5000C2F2000001210170FEE7000070B540F6DC
:103D6000280540F2FC14C4F20005C2F200042860E9
:103D70006960204600210026FEF778FE20460421D7
:103D8000FEF774FE20460821FEF770FE20460C2147
:103D9000FEF76CFE40F2F400C2F20000067040F242
:103DA000F500C2F2000006706E61AE61EE602E6139
:103DB00070BD000040F2F400C2F20000002101706A
:103DC00040F2F500C2F20000017040F63400C4F287
:103DD00000008160C16001604160704740F2501096
:103DE000C2F200000078002818BF7047F0B581B01B
:103DF00040F20C00C2F2000090ED000A40F25C10AC
:103E0000C2F2000090ED001A9FED7B2A40F27C0682
:103E100021EE021A31EE402A31EE000A9FED771AA8
:103E2000C2F2000686ED000A22EE010A9FED741A26
:103E3000B0EEC02A40F6340540F27807B4EE412ACD
:103E4000C4F20005C2F20007F1EE10FA87ED000A95
:103E50000EDA40F28C20C2F20000FFF78DFB40F238
:103E6000F4010020C2F2000128606860087031E0AF
:103E700040F2F800C2F2000040F28C24D0ED040AB7
:103E8000C2F200049FED5F1A2046FFF77BFBBDEEF8
:103E9000C00A10EE100A97ED000A40F27001B5EE6C
:103EA000400AC2F20001F1EE10FA088001DD00289C
:103EB00006D4B5EE400AF1EE10FA5FDA00285DDDB7
:103EC0000020606140F2F400C2F2000000210170A5
:103ED0002960696096ED000A9FED4B1AB0EEC02A8A
:103EE000B4EE412AF1EE10FA12DA40F2B820C2F232
:103EF0000000FFF741FB40F2F5010020C2F2000193
:103F0000A860E860087001B0BDE8F040704700BFED
:103F100040F21810C2F2000040F2B824D0ED040ABA
:103F2000C2F200049FED371A2046FFF72BFBBDEECF
:103F3000C00A10EE100A96ED000A40F27201B5EECA
:103F4000400AC2F20001F1EE10FA088001DD0028FB
:103F500006D4B5EE400AF1EE10FA1BDA002819DD9E
:103F60000020606140F2F500C2F200000021017003
:103F7000A960E96001B0BDE8F0407047012819DB95
:103F800040F2F401C2F2000101220A702860002010
:103F900068609FE701281DDB40F2F501C2F20001D5
:103FA00001220A70A8600020E86001B0BDE8F0407E
:103FB000704700BFB0F1FF3F3FF784AF40F2F4011C
:103FC000C2F20001FF220A700021404229606860AD
:103FD00080E700BFB0F1FF3FC4DC40F2F501C2F260
:103FE0000001FF220A7000214042A960E86001B090
:103FF000BDE8F040704700BF9A99993D5C8F82BF41
:1040000017B7D1380AD7A33CACC527372DE9F04301
:1040100085B06420FCF71EFE40F2601400254FF4CA
:10402000FA764FF00A084FF002090DF11207C2F2BA
:10403000000400BF2046D02147220123CDE90079AA
:10404000CDF80880FDF75AF8BDF8120000BA05EB6C
:1040500020450A20FCF7FEFD013EEBD100EE105A90
:104060009FED0A1AB8EEC00A80EE010A9FED081A09
:1040700040F23810C2F20000002180EE010A80ED0B
:10408000020AC16005B0BDE8F08300BF0000FA433A
:1040900000000343F0B585B06420FCF7DBFD01268A
:1040A0000DF11300CDE9000640F260100A25C2F2BE
:1040B0000000D021752201230295FDF71FF89DF81D
:1040C0001300682842D140F26014C2F200040DF1DE
:1040D00012072046D0216B2201238DF81260CDE912
:1040E00000760295FDF736F90A20FCF7B3FD0920AA
:1040F0008DF812002046D02119220123CDE9007647
:104100000295FDF727F903208DF812002046D021F3
:104110001A220123CDE900760295FDF71BF9002054
:104120008DF812002046D0211B220123CDE9007614
:104130000295FDF70FF92046D021382201238DF892
:104140001260CDE900760295FDF704F905B0F0BDE7
:104150009FED0E1A9FED0E2A30EE600A30EE011A26
:10416000B4EE420A9FED0C2AF1EE10FAC8BFB0EE91
:10417000410A9FED081AB4EE420A30EE011AF1EE40
:1041800010FAB8BFB0EE410A704700BF0000B4C3D8
:10419000000034430000B443000034C380B52DED6B
:1041A0000A8B9FED1B8A9FED1B9A9FED1BAA9FED2B
:1041B0001BBA9FED1BCA40F28C20C2F20000B0EE89
:1041C000480AF0EE490AB0EE4A1AF0EE4B1AB0EE89
:1041D0004C2AF0EE4B2AB0EE4C3AFFF7C1F940F210
:1041E000B820C2F20000B0EE480AF0EE490AB0EE84
:1041F0004A1AF0EE4B1AB0EE4C2AF0EE4B2AB0EE13
:104200004C3ABDEC0A8BBDE88040FFF7A9B900BF6E
:104210000080B6440000E1438FC2F53C00C079C481
:1042200000C079445FEA400C08BF91F0000F4FEAEC
:104230008C234FEAC12243EA51514FEA1C5018BF68
:1042400000F5F0404FEA300018BF41F000415FEA4E
:104250006C5C00F02980BCF1FF3F08BF40F080405B
:104260007047130C06BF12044FF0100C4FF0000CF7
:10427000130E04BF12020CF1080C130F04BF12013D
:104280000CF1040C930F04BF92000CF1020CD30F3D
:1042900004BF52000CF1010C11464FF00002A0F1D6
:1042A0001F00A0EB0C00704711F0004F08BF7047D3
:1042B00031F000413FF4D5AF0B0C06BF09044FF0BD
:1042C000100C4FF0000C0B0E04BF09020CF1080C8F
:1042D0000B0F04BF09010CF1040C8B0F04BF890004
:1042E0000CF1020CCB0F04BF49000CF1010CCCF116
:1042F000200322FA03F341EA030102FA0CF2A0EBD5
:104300000C0000F10100704723F07F4720F07F4C44
:1043100080EA030000F00040ACEB070303F57C5398
:1043200003F1FF032DE9804909B44FEA144324EA5D
:1043300003484FEA154B25EA0B4E0FF2042606EB15
:1043400013273E7803FB0667C7F5000707FB06F651
:104350004FEAD64606F102064FEA543707FB066CD1
:10436000CCF1005C4FEA1C472CEA074C0CFB06F52D
:1043700007FB06F404EB15464FEA961649085FEA78
:10438000320234BF00204FF000404FEAD13706FB25
:1043900007FC4FEA1C4C0CFB0BF7D21B03FB0CF782
:1043A00061EB07010CFB0EF7B0EB074072EB174215
:1043B0000CFB08F734BFA2EB0742B2EB074261EBFC
:1043C00017414FEA0C444FEA910706FB07FC4FEAFE
:1043D0001C4C0CFB0BF7B0EBC74072EB573203FBE6
:1043E0000CF734BFA2EBC742B2EBC74261EB5731C7
:1043F0000CFB0EF7B0EBC70072EB57720CFB08F723
:1044000034BFA2EBC702B2EBC70261EB57714FEAB0
:10441000816141EA92114FEA826242EA90124FEAC8
:10442000806004EBCC04039F4FEAD13706FB07FC06
:104430004FEA1C4C0CFB0BF7D21B03FB0CF761EB98
:1044400007010CFB0EF7B0EB074072EB17420CFBB9
:1044500008F734BFA2EB0742B2EB074261EB17410A
:104460004FEA8C5504EB9C244FEA910706FB07FCAE
:104470004FEA1C4C0CFB0BF7B0EBC74072EB57320A
:1044800003FB0CF734BFA2EBC742B2EBC74261EBB0
:1044900057310CFB0EF7B0EBC70072EB57720CFBF9
:1044A00008F734BFA2EBC702B2EBC70261EB57714A
:1044B0004FEA816141EA92114FEA826242EA901228
:1044C0004FEA806015EB4C2544F100044FEAD137E8
:1044D00006FB07FC4FEA1C4C0CFB0BF7D21B03FB43
:1044E0000CF761EB07010CFB0EF7B0EB074072EB2A
:1044F00017420CFB08F734BFA2EB0742B2EB0742AE
:1045000061EB17414FEA813141EA92414FEA823231
:1045100042EA90424FEA80304FEA0C7615EB1C15C8
:1045200044F1000448EA03434EEA0B484FF0000E02
:10453000B2EB080C71EB030724BF624639464EEB21
:104540000E0E4FF0000B0018524149414BEB0B0B84
:10455000B2EB080C71EB03077BF1000B24BF624642
:1045600039464EEB0E0E4FF0000B001852414941F8
:104570004BEB0B0BB2EB080C71EB03077BF1000B61
:1045800024BF624639464EEB0E0E51EA020718BFB1
:1045900046F0010616EB0E7655F1000254F10001CB
:1045A00003D5BDE88901BDE80088BDE88901BDE803
:1045B0000048B619524141EB0101A3F101037047D4
:1045C00080807F7E7D7C7B7A797877767675747350
:1045D000727171706F6E6E6D6C6C6B6A6A6968680F
:1045E000676666656464636362616160605F5F5EA5
:1045F0005E5D5D5C5C5B5B5A5A595958585757561B
:10460000565555555454535352525251515050507F
:104610004F4F4F4E4E4D4D4D4C4C4C4B4B4B4A4AD1
:104620004A49494948484847474747464646454515
:10463000454444444443434343424242424141414E
:104640009C46002B30D477002BD04FEA37071CB59F
:1046500003B44FF010004FF01001BAF1000F06D074
:10466000BCF1000FDCBF40F0080040F008014FF043
:1046700000000FBCBDE810400BF1010BBBF1010FB6
:1046800008BF5FEA170722BF12F1010211F1010111
:104690004FF0004143F1000300F0004043EA000006
:1046A0007047F9D35708D0E746EA06464FEA164660
:1046B00013F1400F1FDD13F1200FDFBF16430A4631
:1046C000002120335B42BED0C3F1200746EA0646F4
:1046D0004FEA164602FA07F746EA070622FA03F2FD
:1046E000C3F1200701FA07F742EA070221FA03F1B2
:1046F0004FF00003A7E746EA020646EA06464FEAFD
:10470000164646EA0106BCBF46EA0646360C4FF09E
:1047100000034FF000024FF0000194E72DE9804CB8
:1047200070B49A46934691E8380007C831EA400CC5
:1047300048BF34EA430C03D5FFF7E6FDFFF780FFDF
:10474000F0BCBDE8008C2DE9804C70B49A469346CD
:1047500091E8380007C810F0804F08BF13F0804F71
:1047600003D100F005F8FFF76BFFF0BCBDE8008C4B
:1047700020F07F4723F07F4C80EA030000F00040E8
:1047800007EB0C03A3F57C53A3F1FE0392F0000F9B
:1047900000F0B38095F0000F00F077802DE901491B
:1047A0004FEA114021EA00484FEA144624EA06473E
:1047B00000FB06FC08FB06F607FB08F818EB0648AA
:1047C0004CEB164C00FB07F718EB07484CEB174077
:1047D0004FEA124B22EA0B4E4FEA154625EA0647EE
:1047E0000BFB06FC0EFB06F607FB0EFE1EEB064E51
:1047F0004CEB164C0BFB07F71EEB074E4CEB174B25
:1048000018EB0B0840F1000018EB0E0B58EB0008FA
:1048100040F100008F1A4FF000014FF000063CBF3E
:10482000C943661B14BFB5EB040C00213CBFC94350
:10483000F61B4FEA174427EA04454FEA1C472CEAC7
:10484000074C04FB076205FB07F70CFB05F616EBAC
:10485000074642EB174204FB0CFC16EB0C4642EBFE
:104860001C421BEB060658EB020241414EEA8E0E3B
:1048700046EA9E0601D5BDE80189B619524141EBD1
:104880000101A3F10103BDE801894FEA144524EABF
:1048900005464FEA114721EA074C05FB07F406FBE2
:1048A00007F70CFB06F111EB074144EB174405FB3E
:1048B0000CFC11EB0C4144EB1C444FEA124722EA7A
:1048C000074C05FB07F206FB07F70CFB06F616EB99
:1048D000074642EB174205FB0CFC16EB0C4642EB7D
:1048E0001C456A1854F1000148BF7047B61952417F
:1048F00041EB0101A3F10103704795F0000F37D0A0
:104900004FEA114221EA02464FEA144724EA074CD3
:1049100002FB07F106FB07F70CFB06F414EB074458
:1049200041EB174102FB0CFC14EB0C4441EB1C4126
:104930004FEA154725EA074C02FB07F506FB07F788
:104940000CFB06F616EB074645EB174502FB0CFC85
:1049500016EB0C4645EB1C42121951F1000148BF01
:104960007047B619524141EB0101A3F101037047B1
:104970004FEA144524EA05464FEA114721EA074C5D
:1049800005FB07F106FB07F70CFB06F212EB0742EB
:1049900041EB174105FB0CFC12EB0C4251EB1C41A7
:1049A0004FF0000648BF7047921841EB0101A3F198
:1049B0000103704703B401984100009850EAC120F8
:1049C00018BF04204A0D18BF40F0010040F2FF72EA
:1049D000B2EB515F08BF40F00200012808BF05207C
:1049E00002B070474100080218BF04200A0E18BF29
:1049F00040F001004FF07F4232EA010108BF40F071
:104A00000200012808BF05207047000010EE101AB0
:104A100008B5444A6846B2EB410F28D94FF0E6404A
:104A2000B0EB410F94BF00204FF0FF300090009892
:104A3000002861DB60EE000A10F0010F45D010F095
:104A4000020FDFED391A9FED391A00EEA11ADFEDE2
:104A5000381A40EE811A21EEA01AF0EE400A40EE1C
:104A6000010A08BFF1EE600AB0EE600A08BD314BE2
:104A700021F0004293423CD911F0004FDFED2E0AA5
:104A800020EE201ADFED2D0A19BF31EE601A71EE0B
:104A9000200A31EE201A71EE600ABDEEE01A11EE26
:104AA000100A9FED271A00F0030000EEC10A9FEDE7
:104AB000251A009000EEC10A9FED231A00EEC10AEC
:104AC0009FED221A00EEC10AB1E79FED211A9FED7A
:104AD000210A10F0020F00EE810A9FED1F1A00EE6E
:104AE000801AB7EE000A00EE810A18BFB1EE400A44
:104AF00008BD00F00FF99AE710EE100A4000B0F17F
:104B00007F4F3CBFB7EE000A08BD07D14FF0010050
:104B1000FBF7B3FCBDE8084000F0ECB8BDE8084086
:104B200000F0E4B8B61F927E336D4CB9DA82083CCF
:104B3000A0AA2ABE490E494683F9223F0000004B35
:104B40000000C93F00A0FD390020A2331A61342CB7
:104B5000B93AB2BACA9F2A3DDDFFFFBE00B510EEDA
:104B6000101A2DED028B81B0524A6846B2EB410F0C
:104B70002ED94FF0E640B0EB410F94BF00204FF02C
:104B8000FF3000900098B0EE408A00286ADB10F0F9
:104B9000010F4BD068EE080A9FED471A9FED470AB8
:104BA00000EE810A9FED461A10F0020F00EE801A07
:104BB000B7EE000A00EE810A02BF01B0BDEC028B25
:104BC00000BD00BF01B0B1EE400ABDEC028B00BDDC
:104BD0003C4B21F00042934241D911F0004FDFEDF0
:104BE0003A0A20EE201ADFED390A19BF31EE601AB9
:104BF00071EE200A31EE201A71EE600ABDEEE01A65
:104C000011EE100A9FED321A00F0030000EEC10A07
:104C10009FED301A009000EEC10A9FED2F1A00EEB2
:104C2000C10A9FED2E1A00EEC10AABE728EE080A72
:104C30009FED2B1ADFED2B0A10F0020F40EE010A58
:104C40009FED291A00EE201A61EE000AB0EE480A24
:104C500008EE200AB6D101B0BDEC028B00BD00F019
:104C600059F88FE718EE100A4000B0F17F4F0DD2CF
:104C700018EE100AFFF7B6FE042808BF00F042F84D
:104C8000B0EE480A01B0BDEC028B00BD09D1012095
:104C9000FBF7F3FB01B0BDEC028B5DF804EB00F019
:104CA00029B801B0B0EE480ABDEC028B5DF804EB08
:104CB00000F01CB8B61F927EB93AB2BACA9F2A3D1C
:104CC000DDFFFFBE490E494683F9223F0000004B3D
:104CD0000000C93F00A0FD390020A2331A61342C26
:104CE000336D4CB9DA82083CA0AA2ABE30EE000A25
:104CF00070470000DFED020A80EEA00A7047000056
:104D0000000000009FED020A20EE000A704700003C
:104D1000000000102DE9F0014FF07F42B2EB410F8F
:104D20009FBF4FF0FF310160BDE8F00170474FF0C9
:104D3000004242EA0123C1F3C752783A551112F0FA
:104D40001F0C434CCCF120067C44C1F3C752A2F1A6
:104D500078024FEA621204EB820254F8254008BF41
:104D6000D2E9015612D0556804FA0CF425FA06F778
:104D70003C43976805FA0CF527FA06F8D26807FA5B
:104D80000CFCF24045EA08054CEA0206A4FB034C81
:104D9000A5FB0352A6FB03631D449D4234BF0126BD
:104DA00000261319334416B1934202D903E093420B
:104DB00001D2012200E00022624402F1200C92069E
:104DC000DC0C42EA443200EE102A5B03DFED210ADC
:104DD000F8EEC01A00EE103A4FEA9C1C11F0004F9A
:104DE000B8EE400AC0F800C020EE201A00EE105ABB
:104DF000DFED190AB8EE400A20EE200A71EE810AB2
:104E000070EE800A10EE902A02F500626FF30B023A
:104E100000EE902A70EEE11A31EEC11ADFED101AA1
:104E200030EE411A9FED0D0A20EE800A01EE210AB4
:104E30009FED0C1A00EE810A04BFBDE8F001704737
:104E4000CCF180510160BDE8F001B1EE400A70473D
:104E500068010000000000360000802C22AAFD2915
:104E6000DB0FC92F0000C92F10B500290AD0087820
:104E7000002807D005487844FBF79EFE002801D0A3
:104E8000002010BD0248784410BD00005A01000007
:104E900052010000F1EE100A4FF6FF71C0F2C0316E
:104EA00020EA010040F04070E1EE100A7047FBF785
:104EB0001BBC0000000000006E83F9A22915444EBF
:104EC000D15727FCC0DD34F5999562DB4190433C16
:104ED000AB6351FE02400000000000A00000000093
:104EE00005400000000000C8000000000C40000069
:104EF0000000409C00000000194000000020BCBEE3
:104F00000000000034400000BFC91B8E00000004F8
:104F1000B5400000504BCFD06607E2CF0100000043
:104F20006C4100003E8251AADFEEA7340100000070
:104F3000D9420000DCB5A0E23A301F97FFFFFFFF27
:104F4000B4450000FD25A0C8E9A3C14FFFFFFFFF46
:104F5000FF3F00000000008000000000FF3F000055
:104F600000000080000000000000000000000000C1
:104F700001020304060708090000000001020304FF
:104F80000200000004000000080000001000000003
:104F9000FDFFFFFFFBFFFFFFF7FFFFFFEFFFFFFF3F
:104FA000FFFDFFFFFFFBFFFFFFF7FFFFFFEFFFFF2F
:104FB000F04F00080000002010000000EC01000885
:104FC0000050000810000020D80800000C02000863
:104FD0001C00000043000000F8FFFFFF0C00000071
:104FE0000E0000000F0000002E0000000000000076
:104FF00001000000100000000024F4009A99193EFE
:040000050800018965
:00000001FF
